{
  "contractName": "Processes",
  "abi": [
    {
      "constant": true,
      "inputs": [],
      "name": "processCount",
      "outputs": [
        {
          "name": "",
          "type": "uint256"
        }
      ],
      "payable": false,
      "stateMutability": "view",
      "type": "function"
    },
    {
      "constant": true,
      "inputs": [],
      "name": "productsCount",
      "outputs": [
        {
          "name": "",
          "type": "uint256"
        }
      ],
      "payable": false,
      "stateMutability": "view",
      "type": "function"
    },
    {
      "constant": false,
      "inputs": [
        {
          "name": "_name",
          "type": "string"
        },
        {
          "name": "_description",
          "type": "string"
        },
        {
          "name": "addr",
          "type": "address"
        }
      ],
      "name": "addProcess",
      "outputs": [],
      "payable": false,
      "stateMutability": "nonpayable",
      "type": "function"
    },
    {
      "constant": false,
      "inputs": [
        {
          "name": "processid",
          "type": "uint256"
        },
        {
          "name": "_id",
          "type": "uint256"
        },
        {
          "name": "addr1",
          "type": "address"
        },
        {
          "name": "addr2",
          "type": "address"
        }
      ],
      "name": "addProcessesProduct",
      "outputs": [],
      "payable": false,
      "stateMutability": "nonpayable",
      "type": "function"
    },
    {
      "constant": false,
      "inputs": [
        {
          "name": "addr",
          "type": "address"
        },
        {
          "name": "_id",
          "type": "uint256"
        },
        {
          "name": "_active",
          "type": "bool"
        }
      ],
      "name": "changeStatus",
      "outputs": [],
      "payable": false,
      "stateMutability": "nonpayable",
      "type": "function"
    },
    {
      "constant": true,
      "inputs": [
        {
          "name": "_id",
          "type": "uint256"
        }
      ],
      "name": "getProcessesProduct",
      "outputs": [
        {
          "name": "",
          "type": "uint256[]"
        }
      ],
      "payable": false,
      "stateMutability": "view",
      "type": "function"
    },
    {
      "constant": true,
      "inputs": [
        {
          "name": "_processId",
          "type": "uint256"
        }
      ],
      "name": "getProcess",
      "outputs": [
        {
          "components": [
            {
              "name": "id",
              "type": "uint256"
            },
            {
              "name": "name",
              "type": "string"
            },
            {
              "name": "timestamp",
              "type": "uint256"
            },
            {
              "name": "description",
              "type": "string"
            },
            {
              "name": "active",
              "type": "bool"
            },
            {
              "name": "maker",
              "type": "address"
            },
            {
              "name": "involvedproducts",
              "type": "uint256[]"
            }
          ],
          "name": "",
          "type": "tuple"
        }
      ],
      "payable": false,
      "stateMutability": "view",
      "type": "function"
    },
    {
      "constant": true,
      "inputs": [],
      "name": "getNumberOfProcesses",
      "outputs": [
        {
          "name": "",
          "type": "uint256"
        }
      ],
      "payable": false,
      "stateMutability": "view",
      "type": "function"
    },
    {
      "constant": true,
      "inputs": [
        {
          "name": "_processId",
          "type": "uint256"
        }
      ],
      "name": "getProcessDetails",
      "outputs": [
        {
          "name": "",
          "type": "string"
        }
      ],
      "payable": false,
      "stateMutability": "view",
      "type": "function"
    },
    {
      "constant": false,
      "inputs": [
        {
          "name": "addr",
          "type": "address"
        }
      ],
      "name": "updateNumberOfProducts",
      "outputs": [],
      "payable": false,
      "stateMutability": "nonpayable",
      "type": "function"
    }
  ],
  "bytecode": "0x608060405234801561001057600080fd5b506117fe806100206000396000f3fe6080604052600436106100a4576000357c0100000000000000000000000000000000000000000000000000000000900463ffffffff1680630b3f989c146100a957806311ca4d85146100d25780637463a0481461010f578063848df540146101385780638e878a8e1461016357806395bef518146101a0578063ba3063c1146101cb578063d0851a71146101f4578063e0df7bb614610231578063fc6b7f0e1461025c575b600080fd5b3480156100b557600080fd5b506100d060048036036100cb9190810190611211565b610285565b005b3480156100de57600080fd5b506100f960048036036100f49190810190611290565b610472565b6040516101069190611568565b60405180910390f35b34801561011b57600080fd5b5061013660048036036101319190810190611199565b6104fc565b005b34801561014457600080fd5b5061014d61060b565b60405161015a91906115ce565b60405180910390f35b34801561016f57600080fd5b5061018a60048036036101859190810190611290565b610611565b604051610197919061158a565b60405180910390f35b3480156101ac57600080fd5b506101b56108ac565b6040516101c291906115ce565b60405180910390f35b3480156101d757600080fd5b506101f260048036036101ed9190810190611170565b6108b6565b005b34801561020057600080fd5b5061021b60048036036102169190810190611290565b61095f565b60405161022891906115ac565b60405180910390f35b34801561023d57600080fd5b50610246610bca565b60405161025391906115ce565b60405180910390f35b34801561026857600080fd5b50610283600480360361027e91908101906112e2565b610bd0565b005b80600081905060008173ffffffffffffffffffffffffffffffffffffffff166317d4a491336040518263ffffffff167c01000000000000000000000000000000000000000000000000000000000281526004016102e2919061154d565b60206040518083038186803b1580156102fa57600080fd5b505afa15801561030e573d6000803e3d6000fd5b505050506040513d601f19601f8201168201806040525061033291908101906111e8565b905080151561034057600080fd5b600260008154809291906001019190505550600254600080600254815260200190815260200160002060000181905550856000806002548152602001908152602001600020600101908051906020019061039b929190610fbb565b504260008060025481526020019081526020016000206002018190555084600080600254815260200190815260200160002060030190805190602001906103e3929190610fbb565b506001600080600254815260200190815260200160002060040160006101000a81548160ff02191690831515021790555033600080600254815260200190815260200160002060040160016101000a81548173ffffffffffffffffffffffffffffffffffffffff021916908373ffffffffffffffffffffffffffffffffffffffff160217905550505050505050565b606060008211801561048657506002548211155b151561049157600080fd5b6000808381526020019081526020016000206005018054806020026020016040519081016040528092919081815260200182805480156104f057602002820191906000526020600020905b8154815260200190600101908083116104dc575b50505050509050919050565b82600081905060008173ffffffffffffffffffffffffffffffffffffffff166317d4a491336040518263ffffffff167c0100000000000000000000000000000000000000000000000000000000028152600401610559919061154d565b60206040518083038186803b15801561057157600080fd5b505afa158015610585573d6000803e3d6000fd5b505050506040513d601f19601f820116820180604052506105a991908101906111e8565b90508015156105b757600080fd5b6000851180156105c957506002548511155b15156105d457600080fd5b83600080600254815260200190815260200160002060040160006101000a81548160ff021916908315150217905550505050505050565b60025481565b606060008211801561062557506002548211155b151561063057600080fd5b606060206040519081016040528060008152509050610684816040805190810160405280600d81526020017f50726f636573734e616d653a2000000000000000000000000000000000000000815250610d62565b905061073d816000808681526020019081526020016000206001018054600181600116156101000203166002900480601f0160208091040260200160405190810160405280929190818152602001828054600181600116156101000203166002900480156107335780601f1061070857610100808354040283529160200191610733565b820191906000526020600020905b81548152906001019060200180831161071657829003601f168201915b5050505050610d62565b905061077e816040805190810160405280601481526020017f50726f636573734465736372697074696f6e3a20000000000000000000000000815250610d62565b9050610837816000808681526020019081526020016000206003018054600181600116156101000203166002900480601f01602080910402602001604051908101604052809291908181526020018280546001816001161561010002031660029004801561082d5780601f106108025761010080835404028352916020019161082d565b820191906000526020600020905b81548152906001019060200180831161081057829003601f168201915b5050505050610d62565b9050610878816040805190810160405280601281526020017f50726f6365737374696d657374616d703a200000000000000000000000000000815250610d62565b90506108a18161089c60008087815260200190815260200160002060020154610e56565b610d62565b905080915050919050565b6000600254905090565b60008190508073ffffffffffffffffffffffffffffffffffffffff16633ffd81fb6040518163ffffffff167c010000000000000000000000000000000000000000000000000000000002815260040160206040518083038186803b15801561091d57600080fd5b505afa158015610931573d6000803e3d6000fd5b505050506040513d601f19601f8201168201806040525061095591908101906112b9565b6001819055505050565b61096761103b565b60008211801561097957506002548211155b151561098457600080fd5b60008083815260200190815260200160002060e0604051908101604052908160008201548152602001600182018054600181600116156101000203166002900480601f016020809104026020016040519081016040528092919081815260200182805460018160011615610100020316600290048015610a455780601f10610a1a57610100808354040283529160200191610a45565b820191906000526020600020905b815481529060010190602001808311610a2857829003601f168201915b5050505050815260200160028201548152602001600382018054600181600116156101000203166002900480601f016020809104026020016040519081016040528092919081815260200182805460018160011615610100020316600290048015610af15780601f10610ac657610100808354040283529160200191610af1565b820191906000526020600020905b815481529060010190602001808311610ad457829003601f168201915b505050505081526020016004820160009054906101000a900460ff161515151581526020016004820160019054906101000a900473ffffffffffffffffffffffffffffffffffffffff1673ffffffffffffffffffffffffffffffffffffffff1673ffffffffffffffffffffffffffffffffffffffff16815260200160058201805480602002602001604051908101604052809291908181526020018280548015610bba57602002820191906000526020600020905b815481526020019060010190808311610ba6575b5050505050815250509050919050565b60015481565b81600081905060008173ffffffffffffffffffffffffffffffffffffffff166317d4a491336040518263ffffffff167c0100000000000000000000000000000000000000000000000000000000028152600401610c2d919061154d565b60206040518083038186803b158015610c4557600080fd5b505afa158015610c59573d6000803e3d6000fd5b505050506040513d601f19601f82011682018060405250610c7d91908101906111e8565b9050801515610c8b57600080fd5b60008088815260200190815260200160002060050186908060018154018082558091505090600182039060005260206000200160009091929091909150555060008490508073ffffffffffffffffffffffffffffffffffffffff1663a0af06df89896040518363ffffffff167c0100000000000000000000000000000000000000000000000000000000028152600401610d269291906115e9565b600060405180830381600087803b158015610d4057600080fd5b505af1158015610d54573d6000803e3d6000fd5b505050505050505050505050565b606082826040516020018083805190602001908083835b602083101515610d9e5780518252602082019150602081019050602083039250610d79565b6001836020036101000a038019825116818451168082178552505050505050905001807f200000000000000000000000000000000000000000000000000000000000000081525060010182805190602001908083835b602083101515610e195780518252602082019150602081019050602083039250610df4565b6001836020036101000a03801982511681845116808217855250505050505090500192505050604051602081830303815290604052905092915050565b60606000821415610e9e576040805190810160405280600181526020017f30000000000000000000000000000000000000000000000000000000000000008152509050610fb6565b600082905060005b600082141515610ecc578080600101915050600a82811515610ec457fe5b049150610ea6565b6060816040519080825280601f01601f191660200182016040528015610f015781602001600182028038833980820191505090505b50905060008290505b600086141515610fae576001810390506000600a8088811515610f2957fe5b0402870360300190506000817f0100000000000000000000000000000000000000000000000000000000000000029050808484815181101515610f6857fe5b9060200101907effffffffffffffffffffffffffffffffffffffffffffffffffffffffffffff1916908160001a905350600a88811515610fa457fe5b0497505050610f0a565b819450505050505b919050565b828054600181600116156101000203166002900490600052602060002090601f016020900481019282601f10610ffc57805160ff191683800117855561102a565b8280016001018555821561102a579182015b8281111561102957825182559160200191906001019061100e565b5b5090506110379190611091565b5090565b60e06040519081016040528060008152602001606081526020016000815260200160608152602001600015158152602001600073ffffffffffffffffffffffffffffffffffffffff168152602001606081525090565b6110b391905b808211156110af576000816000905550600101611097565b5090565b90565b60006110c28235611713565b905092915050565b60006110d68235611725565b905092915050565b60006110ea8251611725565b905092915050565b600082601f830112151561110557600080fd5b81356111186111138261163f565b611612565b9150808252602083016020830185838301111561113457600080fd5b61113f838284611771565b50505092915050565b60006111548235611731565b905092915050565b60006111688251611731565b905092915050565b60006020828403121561118257600080fd5b6000611190848285016110b6565b91505092915050565b6000806000606084860312156111ae57600080fd5b60006111bc868287016110b6565b93505060206111cd86828701611148565b92505060406111de868287016110ca565b9150509250925092565b6000602082840312156111fa57600080fd5b6000611208848285016110de565b91505092915050565b60008060006060848603121561122657600080fd5b600084013567ffffffffffffffff81111561124057600080fd5b61124c868287016110f2565b935050602084013567ffffffffffffffff81111561126957600080fd5b611275868287016110f2565b9250506040611286868287016110b6565b9150509250925092565b6000602082840312156112a257600080fd5b60006112b084828501611148565b91505092915050565b6000602082840312156112cb57600080fd5b60006112d98482850161115c565b91505092915050565b600080600080608085870312156112f857600080fd5b600061130687828801611148565b945050602061131787828801611148565b9350506040611328878288016110b6565b9250506060611339878288016110b6565b91505092959194509250565b61134e8161173b565b82525050565b61135d816116cb565b82525050565b600061136e82611690565b80845260208401935061138083611678565b60005b828110156113b25761139686835161153e565b61139f826116be565b9150602086019550600181019050611383565b50849250505092915050565b60006113c982611685565b8084526020840193506113db8361166b565b60005b8281101561140d576113f186835161153e565b6113fa826116b1565b91506020860195506001810190506113de565b50849250505092915050565b611422816116dd565b82525050565b6000611433826116a6565b808452611447816020860160208601611780565b611450816117b3565b602085010191505092915050565b60006114698261169b565b80845261147d816020860160208601611780565b611486816117b3565b602085010191505092915050565b600060e0830160008301516114ac600086018261153e565b50602083015184820360208601526114c4828261145e565b91505060408301516114d9604086018261153e565b50606083015184820360608601526114f1828261145e565b91505060808301516115066080860182611419565b5060a083015161151960a0860182611354565b5060c083015184820360c086015261153182826113be565b9150508091505092915050565b61154781611709565b82525050565b60006020820190506115626000830184611345565b92915050565b600060208201905081810360008301526115828184611363565b905092915050565b600060208201905081810360008301526115a48184611428565b905092915050565b600060208201905081810360008301526115c68184611494565b905092915050565b60006020820190506115e3600083018461153e565b92915050565b60006040820190506115fe600083018561153e565b61160b602083018461153e565b9392505050565b6000604051905081810181811067ffffffffffffffff8211171561163557600080fd5b8060405250919050565b600067ffffffffffffffff82111561165657600080fd5b601f19601f8301169050602081019050919050565b6000602082019050919050565b6000602082019050919050565b600081519050919050565b600081519050919050565b600081519050919050565b600081519050919050565b6000602082019050919050565b6000602082019050919050565b60006116d6826116e9565b9050919050565b60008115159050919050565b600073ffffffffffffffffffffffffffffffffffffffff82169050919050565b6000819050919050565b600061171e826116e9565b9050919050565b60008115159050919050565b6000819050919050565b60006117468261174d565b9050919050565b60006117588261175f565b9050919050565b600061176a826116e9565b9050919050565b82818337600083830152505050565b60005b8381101561179e578082015181840152602081019050611783565b838111156117ad576000848401525b50505050565b6000601f19601f830116905091905056fea265627a7a7230582028b3b3815397949b7819f2cba8a16762186599e8349310b1c79c4e84bceb4ab76c6578706572696d656e74616cf50037",
  "source": "pragma solidity ^0.5.0;\r\npragma experimental ABIEncoderV2;\r\n\r\nimport './Product_Full_Details.sol';\r\nimport './Stakeholders.sol';\r\n\r\n\r\n\r\ncontract Processes{\r\n\r\n    struct Process {\r\n        uint id; // \r\n\t    string name;       \r\n        uint timestamp; // when it was registered\r\n        string description; // other info\r\n\t    bool active;\r\n        address maker; // who registered it and will execute it,stakeholder\r\n\t    uint [] involvedproducts; // id of products that use this process\r\n\r\n    }\r\n\r\n    mapping(uint => Process) private processChanges; //\r\n\r\n    \r\n    uint public productsCount;\r\n    uint public processCount;\r\n\r\n    \r\n    function addProcess (string memory _name, string memory _description,address addr) public restricted(addr) {\r\n\r\n        processCount++;\r\n\r\n        processChanges[processCount].id = processCount;\r\n        processChanges[processCount].name = _name; \r\n        processChanges[processCount].timestamp = now; \r\n        processChanges[processCount].description = _description; \r\n        processChanges[processCount].active = true; \r\n        processChanges[processCount].maker = msg.sender;\r\n    \r\n    }\r\n\r\n\r\n\r\n    //_id is the product id\r\n    //processid is the processsone\r\n    //addr1 is address of the stakeholder instance\r\n    //addr2 is addresss of the Product full details instance\r\n    function addProcessesProduct(uint processid,uint _id,address addr1,address addr2) public restricted(addr1) { \r\n        processChanges[processid].involvedproducts.push(_id);\r\n        Product_Full_Details p = Product_Full_Details(addr2);\r\n        p.addProductProcessInvolved(processid,_id);\r\n    }\r\n\r\n\r\n    //stakeholder contract address\r\n    function changeStatus (address addr,uint _id, bool _active) public restricted(addr) { \r\n        require(_id > 0 && _id <= processCount); \r\n        processChanges[processCount].active = _active;\r\n    }\r\n    \r\n    function getProcessesProduct (uint _id) public view returns (uint [] memory)  {\r\n        require(_id > 0 && _id <= processCount); \r\n        return processChanges[_id].involvedproducts;\r\n    }\r\n\r\n\r\n    function getProcess (uint _processId) public view returns (Process memory)  {\r\n        require(_processId > 0 && _processId <= processCount); \r\n       //require(Processes.checkStakeholder(address addr, msg.sender)==true); // if valid stakeholder    \r\n        return processChanges[_processId];\r\n    }\r\n    \r\n    // returns global number of stories, needed to iterate the mapping and to know info.\r\n    function getNumberOfProcesses () public view returns (uint){\r\n    //tx.origin \r\n        return processCount;\r\n    }\r\n    function concatenate(string memory a,string memory b) private pure returns (string memory){\r\n        return string(abi.encodePacked(a,' ',b));\r\n    } \r\n\r\n    function getProcessDetails (uint _processId) public view returns (string memory){\r\n        require(_processId > 0 && _processId <= processCount); \r\n        string memory r = \"\";\r\n        r = concatenate(r,\"ProcessName: \");\r\n        r = concatenate(r,processChanges[_processId].name);\r\n        r = concatenate(r,\"ProcessDescription: \");\r\n        r = concatenate(r,processChanges[_processId].description);\r\n        r = concatenate(r,\"Processtimestamp: \");\r\n        r = concatenate(r,uint2str(processChanges[_processId].timestamp));\r\n        return r;\r\n }\r\n    \r\n\r\n    //This function has no use here\r\n    // function checkStakeholder (address addr, address stake) public view returns (bool){\r\n    //     Stakeholders s = Stakeholders(addr);\r\n    //     bool ex=s.exists(stake);\r\n    //     return ex;\r\n    // }\r\n\r\n    function updateNumberOfProducts (address addr) public {\r\n        Product_Full_Details f = Product_Full_Details(addr);\r\n        productsCount =f.getNumberOfProducts(); \r\n    }\r\n\r\n    function uint2str(uint _i) internal pure returns (string memory _uintAsString) {\r\n            if (_i == 0) {\r\n                return \"0\";\r\n            }\r\n            uint j = _i;\r\n            uint len;\r\n            while (j != 0) {\r\n                len++;\r\n                j /= 10;\r\n            }\r\n            bytes memory bstr = new bytes(len);\r\n            uint k = len;\r\n            while (_i != 0) {\r\n                k = k-1;\r\n                uint8 temp = (48 + uint8(_i - _i / 10 * 10));\r\n                bytes1 b1 = bytes1(temp);\r\n                bstr[k] = b1;\r\n                _i /= 10;\r\n            }\r\n            return string(bstr);\r\n        }\r\n\r\n\r\n    modifier restricted(address addr){\r\n        Stakeholders s = Stakeholders(addr);\r\n        bool ex=s.isManufacturer(msg.sender);\r\n        require(ex);\r\n        _;\r\n    }\r\n    \r\n}",
  "sourcePath": "C:\\Users\\Bhanu Reddy\\OneDrive\\Desktop\\DairyApplication-main\\contracts\\Processes.sol",
  "compiler": {
    "name": "solc",
    "version": "0.5.0+commit.1d4f565a.Emscripten.clang"
  },
  "schemaVersion": "3.4.9",
  "updatedAt": "2022-08-28T09:58:03.508Z",
  "networkType": "ethereum",
  "devdoc": {
    "methods": {}
  },
  "userdoc": {
    "methods": {}
  }
}