{
  "contractName": "Product_Full_Details",
  "abi": [
    {
      "constant": true,
      "inputs": [
        {
          "name": "",
          "type": "uint256"
        }
      ],
      "name": "products",
      "outputs": [
        {
          "name": "id",
          "type": "uint256"
        },
        {
          "name": "name",
          "type": "string"
        },
        {
          "name": "quantity",
          "type": "uint256"
        },
        {
          "name": "description",
          "type": "string"
        },
        {
          "name": "numberoftraces",
          "type": "uint256"
        },
        {
          "name": "numberoftemperatures",
          "type": "uint256"
        },
        {
          "name": "test_number",
          "type": "string"
        },
        {
          "name": "globalId",
          "type": "string"
        }
      ],
      "payable": false,
      "stateMutability": "view",
      "type": "function"
    },
    {
      "constant": true,
      "inputs": [],
      "name": "globalnumberProcesses",
      "outputs": [
        {
          "name": "",
          "type": "uint256"
        }
      ],
      "payable": false,
      "stateMutability": "view",
      "type": "function"
    },
    {
      "constant": true,
      "inputs": [],
      "name": "globalnumberstakeholders",
      "outputs": [
        {
          "name": "",
          "type": "uint256"
        }
      ],
      "payable": false,
      "stateMutability": "view",
      "type": "function"
    },
    {
      "constant": true,
      "inputs": [],
      "name": "productsCount",
      "outputs": [
        {
          "name": "",
          "type": "uint256"
        }
      ],
      "payable": false,
      "stateMutability": "view",
      "type": "function"
    },
    {
      "constant": false,
      "inputs": [
        {
          "name": "stakeholdertype",
          "type": "string"
        }
      ],
      "name": "registerStakeholder",
      "outputs": [],
      "payable": false,
      "stateMutability": "nonpayable",
      "type": "function"
    },
    {
      "constant": true,
      "inputs": [],
      "name": "getStakeHolderList",
      "outputs": [
        {
          "components": [
            {
              "name": "addressstake",
              "type": "address"
            },
            {
              "name": "staketype",
              "type": "string"
            }
          ],
          "name": "",
          "type": "tuple[]"
        }
      ],
      "payable": false,
      "stateMutability": "view",
      "type": "function"
    },
    {
      "constant": false,
      "inputs": [
        {
          "name": "_name",
          "type": "string"
        },
        {
          "name": "_quantity",
          "type": "uint256"
        },
        {
          "name": "_description",
          "type": "string"
        },
        {
          "name": "_globalID",
          "type": "string"
        },
        {
          "name": "temp",
          "type": "uint256"
        },
        {
          "name": "place",
          "type": "string"
        },
        {
          "name": "addr",
          "type": "address"
        }
      ],
      "name": "addProductManufacturer",
      "outputs": [],
      "payable": false,
      "stateMutability": "nonpayable",
      "type": "function"
    },
    {
      "constant": false,
      "inputs": [
        {
          "name": "temp",
          "type": "uint256"
        },
        {
          "name": "pid",
          "type": "uint256"
        },
        {
          "name": "place",
          "type": "string"
        },
        {
          "name": "addr",
          "type": "address"
        }
      ],
      "name": "addProductDistributer",
      "outputs": [],
      "payable": false,
      "stateMutability": "nonpayable",
      "type": "function"
    },
    {
      "constant": false,
      "inputs": [
        {
          "name": "pid",
          "type": "uint256"
        },
        {
          "name": "temp",
          "type": "uint256"
        },
        {
          "name": "place",
          "type": "string"
        },
        {
          "name": "addr",
          "type": "address"
        }
      ],
      "name": "addProductRetailer",
      "outputs": [],
      "payable": false,
      "stateMutability": "nonpayable",
      "type": "function"
    },
    {
      "constant": false,
      "inputs": [
        {
          "name": "processid",
          "type": "uint256"
        },
        {
          "name": "productid",
          "type": "uint256"
        }
      ],
      "name": "addProductProcessInvolved",
      "outputs": [],
      "payable": false,
      "stateMutability": "nonpayable",
      "type": "function"
    },
    {
      "constant": false,
      "inputs": [
        {
          "name": "_productId",
          "type": "uint256"
        },
        {
          "name": "_test_number",
          "type": "string"
        }
      ],
      "name": "addTestProduct",
      "outputs": [],
      "payable": false,
      "stateMutability": "nonpayable",
      "type": "function"
    },
    {
      "constant": true,
      "inputs": [],
      "name": "getNumberOfProducts",
      "outputs": [
        {
          "name": "",
          "type": "uint256"
        }
      ],
      "payable": false,
      "stateMutability": "view",
      "type": "function"
    },
    {
      "constant": false,
      "inputs": [
        {
          "name": "_productId",
          "type": "uint256"
        },
        {
          "name": "_description",
          "type": "string"
        }
      ],
      "name": "UpdateProductDescription",
      "outputs": [],
      "payable": false,
      "stateMutability": "nonpayable",
      "type": "function"
    },
    {
      "constant": true,
      "inputs": [
        {
          "name": "_productId",
          "type": "uint256"
        }
      ],
      "name": "getProductFullDetails",
      "outputs": [
        {
          "name": "",
          "type": "string"
        }
      ],
      "payable": false,
      "stateMutability": "view",
      "type": "function"
    },
    {
      "constant": true,
      "inputs": [
        {
          "name": "_productId",
          "type": "uint256"
        }
      ],
      "name": "getProductGlobalID",
      "outputs": [
        {
          "name": "",
          "type": "string"
        }
      ],
      "payable": false,
      "stateMutability": "view",
      "type": "function"
    },
    {
      "constant": true,
      "inputs": [
        {
          "name": "_productId",
          "type": "uint256"
        }
      ],
      "name": "getProductTest",
      "outputs": [
        {
          "name": "",
          "type": "string"
        }
      ],
      "payable": false,
      "stateMutability": "view",
      "type": "function"
    },
    {
      "constant": false,
      "inputs": [
        {
          "name": "addr",
          "type": "address"
        }
      ],
      "name": "updateNumberOfProcesses",
      "outputs": [],
      "payable": false,
      "stateMutability": "nonpayable",
      "type": "function"
    },
    {
      "constant": false,
      "inputs": [
        {
          "name": "addr",
          "type": "address"
        }
      ],
      "name": "updateNumberOfStakeholders",
      "outputs": [],
      "payable": false,
      "stateMutability": "nonpayable",
      "type": "function"
    },
    {
      "constant": true,
      "inputs": [
        {
          "name": "addr",
          "type": "address"
        },
        {
          "name": "stake",
          "type": "address"
        }
      ],
      "name": "checkStakeholder",
      "outputs": [
        {
          "name": "",
          "type": "bool"
        }
      ],
      "payable": false,
      "stateMutability": "view",
      "type": "function"
    }
  ],
  "bytecode": "0x608060405234801561001057600080fd5b50612a2c806100206000396000f3fe608060405260043610610107576000357c0100000000000000000000000000000000000000000000000000000000900463ffffffff16806310a7a0ea1461010c57806316c8127c146101355780631850ab351461015e5780631a73402b1461018757806326202e46146101b05780633ffd81fb146101d9578063667350f7146102045780636a92e4771461022d5780637acc0b201461026a57806382b7a324146102ae5780639e39f0c1146102d7578063a0af06df14610314578063a288e3e91461033d578063b724fe0014610368578063cb29da5214610393578063cb3e4ec6146103bc578063d269f684146103f9578063d406056214610424578063e0df7bb614610461575b600080fd5b34801561011857600080fd5b50610133600480360361012e9190810190612494565b61048c565b005b34801561014157600080fd5b5061015c60048036036101579190810190612494565b6104d7565b005b34801561016a57600080fd5b5061018560048036036101809190810190612524565b610522565b005b34801561019357600080fd5b506101ae60048036036101a99190810190612344565b6107d5565b005b3480156101bc57600080fd5b506101d760048036036101d29190810190612275565b610b46565b005b3480156101e557600080fd5b506101ee610bef565b6040516101fb9190612787565b60405180910390f35b34801561021057600080fd5b5061022b60048036036102269190810190612275565b610bf9565b005b34801561023957600080fd5b50610254600480360361024f919081019061229e565b610ca2565b604051610261919061274a565b60405180910390f35b34801561027657600080fd5b50610291600480360361028c9190810190612442565b610d5c565b6040516102a59897969594939291906127cb565b60405180910390f35b3480156102ba57600080fd5b506102d560048036036102d09190810190612303565b611004565b005b3480156102e357600080fd5b506102fe60048036036102f99190810190612442565b6110c6565b60405161030b9190612765565b60405180910390f35b34801561032057600080fd5b5061033b600480360361033691908101906124e8565b61119a565b005b34801561034957600080fd5b506103526111dd565b60405161035f9190612787565b60405180910390f35b34801561037457600080fd5b5061037d6111e3565b60405161038a9190612787565b60405180910390f35b34801561039f57600080fd5b506103ba60048036036103b59190810190612524565b6111e9565b005b3480156103c857600080fd5b506103e360048036036103de9190810190612442565b61149c565b6040516103f09190612765565b60405180910390f35b34801561040557600080fd5b5061040e611570565b60405161041b9190612728565b60405180910390f35b34801561043057600080fd5b5061044b60048036036104469190810190612442565b6116c7565b6040516104589190612765565b60405180910390f35b34801561046d57600080fd5b50610476611e4b565b6040516104839190612787565b60405180910390f35b60008211801561049e57506002548211155b15156104a957600080fd5b8060008084815260200190815260200160002060030190805190602001906104d29291906120aa565b505050565b6000821180156104e957506002548211155b15156104f457600080fd5b80600080848152602001908152602001600020600601908051906020019061051d9291906120aa565b505050565b8360008111801561053557506002548111155b151561054057600080fd5b600082905060008173ffffffffffffffffffffffffffffffffffffffff16635da09b88336040518263ffffffff167c010000000000000000000000000000000000000000000000000000000002815260040161059c919061270d565b60206040518083038186803b1580156105b457600080fd5b505afa1580156105c8573d6000803e3d6000fd5b505050506040513d601f19601f820116820180604052506105ec91908101906122da565b90508015156105fa57600080fd5b8173ffffffffffffffffffffffffffffffffffffffff16632d955cf988336040518363ffffffff167c01000000000000000000000000000000000000000000000000000000000281526004016106519291906127a2565b600060405180830381600087803b15801561066b57600080fd5b505af115801561067f573d6000803e3d6000fd5b505050506000808881526020019081526020016000206007018690806001815401808255809150509060018203906000526020600020016000909192909190915055506000808881526020019081526020016000206009013390806001815401808255809150509060018203906000526020600020016000909192909190916101000a81548173ffffffffffffffffffffffffffffffffffffffff021916908373ffffffffffffffffffffffffffffffffffffffff16021790555050600080888152602001908152602001600020600a01429080600181540180825580915050906001820390600052602060002001600090919290919091505550600080888152602001908152602001600020600b018590806001815401808255809150509060018203906000526020600020016000909192909190915090805190602001906107ca9291906120aa565b505050505050505050565b600081905060008173ffffffffffffffffffffffffffffffffffffffff166317d4a491336040518263ffffffff167c0100000000000000000000000000000000000000000000000000000000028152600401610831919061270d565b60206040518083038186803b15801561084957600080fd5b505afa15801561085d573d6000803e3d6000fd5b505050506040513d601f19601f8201168201806040525061088191908101906122da565b905080151561088f57600080fd5b6002600081548092919060010191905055508173ffffffffffffffffffffffffffffffffffffffff16632d955cf9600254336040518363ffffffff167c01000000000000000000000000000000000000000000000000000000000281526004016108fa9291906127a2565b600060405180830381600087803b15801561091457600080fd5b505af1158015610928573d6000803e3d6000fd5b5050505060025460008060025481526020019081526020016000206000018190555088600080600254815260200190815260200160002060010190805190602001906109759291906120aa565b508760008060025481526020019081526020016000206002018190555086600080600254815260200190815260200160002060030190805190602001906109bd9291906120aa565b50856000806002548152602001908152602001600020600c0190805190602001906109e99291906120aa565b50600080600254815260200190815260200160002060070185908060018154018082558091505090600182039060005260206000200160009091929091909150555060008060025481526020019081526020016000206009013390806001815401808255809150509060018203906000526020600020016000909192909190916101000a81548173ffffffffffffffffffffffffffffffffffffffff021916908373ffffffffffffffffffffffffffffffffffffffff160217905550506000806002548152602001908152602001600020600a014290806001815401808255809150509060018203906000526020600020016000909192909190915055506000806002548152602001908152602001600020600b01849080600181540180825580915050906001820390600052602060002001600090919290919091509080519060200190610b399291906120aa565b5050505050505050505050565b60008190508073ffffffffffffffffffffffffffffffffffffffff166395bef5186040518163ffffffff167c010000000000000000000000000000000000000000000000000000000002815260040160206040518083038186803b158015610bad57600080fd5b505afa158015610bc1573d6000803e3d6000fd5b505050506040513d601f19601f82011682018060405250610be5919081019061246b565b6004819055505050565b6000600254905090565b60008190508073ffffffffffffffffffffffffffffffffffffffff1663b3d8f3b56040518163ffffffff167c010000000000000000000000000000000000000000000000000000000002815260040160206040518083038186803b158015610c6057600080fd5b505afa158015610c74573d6000803e3d6000fd5b505050506040513d601f19601f82011682018060405250610c98919081019061246b565b6003819055505050565b60008083905060008173ffffffffffffffffffffffffffffffffffffffff1663f6a3d24e856040518263ffffffff167c0100000000000000000000000000000000000000000000000000000000028152600401610cff91906126f2565b60206040518083038186803b158015610d1757600080fd5b505afa158015610d2b573d6000803e3d6000fd5b505050506040513d601f19601f82011682018060405250610d4f91908101906122da565b9050809250505092915050565b6000602052806000526040600020600091509050806000015490806001018054600181600116156101000203166002900480601f016020809104026020016040519081016040528092919081815260200182805460018160011615610100020316600290048015610e0e5780601f10610de357610100808354040283529160200191610e0e565b820191906000526020600020905b815481529060010190602001808311610df157829003601f168201915b505050505090806002015490806003018054600181600116156101000203166002900480601f016020809104026020016040519081016040528092919081815260200182805460018160011615610100020316600290048015610eb25780601f10610e8757610100808354040283529160200191610eb2565b820191906000526020600020905b815481529060010190602001808311610e9557829003601f168201915b505050505090806004015490806005015490806006018054600181600116156101000203166002900480601f016020809104026020016040519081016040528092919081815260200182805460018160011615610100020316600290048015610f5c5780601f10610f3157610100808354040283529160200191610f5c565b820191906000526020600020905b815481529060010190602001808311610f3f57829003601f168201915b50505050509080600c018054600181600116156101000203166002900480601f016020809104026020016040519081016040528092919081815260200182805460018160011615610100020316600290048015610ffa5780601f10610fcf57610100808354040283529160200191610ffa565b820191906000526020600020905b815481529060010190602001808311610fdd57829003601f168201915b5050505050905088565b600160408051908101604052803373ffffffffffffffffffffffffffffffffffffffff168152602001838152509080600181540180825580915050906001820390600052602060002090600202016000909192909190915060008201518160000160006101000a81548173ffffffffffffffffffffffffffffffffffffffff021916908373ffffffffffffffffffffffffffffffffffffffff16021790555060208201518160010190805190602001906110bf92919061212a565b5050505050565b60606000821180156110da57506002548211155b15156110e557600080fd5b6000808381526020019081526020016000206006018054600181600116156101000203166002900480601f01602080910402602001604051908101604052809291908181526020018280546001816001161561010002031660029004801561118e5780601f106111635761010080835404028352916020019161118e565b820191906000526020600020905b81548152906001019060200180831161117157829003601f168201915b50505050509050919050565b6000808281526020019081526020016000206008018290806001815401808255809150509060018203906000526020600020016000909192909190915055505050565b60045481565b60035481565b826000811180156111fc57506002548111155b151561120757600080fd5b600082905060008173ffffffffffffffffffffffffffffffffffffffff16633cd2e274336040518263ffffffff167c0100000000000000000000000000000000000000000000000000000000028152600401611263919061270d565b60206040518083038186803b15801561127b57600080fd5b505afa15801561128f573d6000803e3d6000fd5b505050506040513d601f19601f820116820180604052506112b391908101906122da565b90508015156112c157600080fd5b8173ffffffffffffffffffffffffffffffffffffffff16632d955cf987336040518363ffffffff167c01000000000000000000000000000000000000000000000000000000000281526004016113189291906127a2565b600060405180830381600087803b15801561133257600080fd5b505af1158015611346573d6000803e3d6000fd5b505050506000808781526020019081526020016000206007018790806001815401808255809150509060018203906000526020600020016000909192909190915055506000808781526020019081526020016000206009013390806001815401808255809150509060018203906000526020600020016000909192909190916101000a81548173ffffffffffffffffffffffffffffffffffffffff021916908373ffffffffffffffffffffffffffffffffffffffff16021790555050600080878152602001908152602001600020600a01429080600181540180825580915050906001820390600052602060002001600090919290919091505550600080878152602001908152602001600020600b018590806001815401808255809150509060018203906000526020600020016000909192909190915090805190602001906114919291906120aa565b505050505050505050565b60606000821180156114b057506002548211155b15156114bb57600080fd5b600080838152602001908152602001600020600c018054600181600116156101000203166002900480601f0160208091040260200160405190810160405280929190818152602001828054600181600116156101000203166002900480156115645780601f1061153957610100808354040283529160200191611564565b820191906000526020600020905b81548152906001019060200180831161154757829003601f168201915b50505050509050919050565b60606001805480602002602001604051908101604052809291908181526020016000905b828210156116be57838290600052602060002090600202016040805190810160405290816000820160009054906101000a900473ffffffffffffffffffffffffffffffffffffffff1673ffffffffffffffffffffffffffffffffffffffff1673ffffffffffffffffffffffffffffffffffffffff168152602001600182018054600181600116156101000203166002900480601f0160208091040260200160405190810160405280929190818152602001828054600181600116156101000203166002900480156116a65780601f1061167b576101008083540402835291602001916116a6565b820191906000526020600020905b81548152906001019060200180831161168957829003601f168201915b50505050508152505081526020019060010190611594565b50505050905090565b60608060206040519081016040528060008152509050611794816000808681526020019081526020016000206001018054600181600116156101000203166002900480601f01602080910402602001604051908101604052809291908181526020018280546001816001161561010002031660029004801561178a5780601f1061175f5761010080835404028352916020019161178a565b820191906000526020600020905b81548152906001019060200180831161176d57829003601f168201915b5050505050611e51565b90506117d5816040805190810160405280600181526020017f3a00000000000000000000000000000000000000000000000000000000000000815250611e51565b90506117fe816117f960008087815260200190815260200160002060020154611f45565b611e51565b905061183f816040805190810160405280600181526020017f3a00000000000000000000000000000000000000000000000000000000000000815250611e51565b90506118808161187b600080878152602001908152602001600020600701600081548110151561186b57fe5b9060005260206000200154611f45565b611e51565b90506118c1816040805190810160405280600181526020017f3a00000000000000000000000000000000000000000000000000000000000000815250611e51565b9050611902816118fd60008087815260200190815260200160002060070160018154811015156118ed57fe5b9060005260206000200154611f45565b611e51565b9050611943816040805190810160405280600181526020017f3a00000000000000000000000000000000000000000000000000000000000000815250611e51565b90506119848161197f600080878152602001908152602001600020600701600281548110151561196f57fe5b9060005260206000200154611f45565b611e51565b90506119c5816040805190810160405280600181526020017f3a00000000000000000000000000000000000000000000000000000000000000815250611e51565b9050611a9681600080868152602001908152602001600020600b0160008154811015156119ee57fe5b906000526020600020018054600181600116156101000203166002900480601f016020809104026020016040519081016040528092919081815260200182805460018160011615610100020316600290048015611a8c5780601f10611a6157610100808354040283529160200191611a8c565b820191906000526020600020905b815481529060010190602001808311611a6f57829003601f168201915b5050505050611e51565b9050611ad7816040805190810160405280600181526020017f3a00000000000000000000000000000000000000000000000000000000000000815250611e51565b9050611ba881600080868152602001908152602001600020600b016001815481101515611b0057fe5b906000526020600020018054600181600116156101000203166002900480601f016020809104026020016040519081016040528092919081815260200182805460018160011615610100020316600290048015611b9e5780601f10611b7357610100808354040283529160200191611b9e565b820191906000526020600020905b815481529060010190602001808311611b8157829003601f168201915b5050505050611e51565b9050611be9816040805190810160405280600181526020017f3a00000000000000000000000000000000000000000000000000000000000000815250611e51565b9050611cba81600080868152602001908152602001600020600b016002815481101515611c1257fe5b906000526020600020018054600181600116156101000203166002900480601f016020809104026020016040519081016040528092919081815260200182805460018160011615610100020316600290048015611cb05780601f10611c8557610100808354040283529160200191611cb0565b820191906000526020600020905b815481529060010190602001808311611c9357829003601f168201915b5050505050611e51565b9050611cfb816040805190810160405280600181526020017f3a00000000000000000000000000000000000000000000000000000000000000815250611e51565b9050611d3c81611d37600080878152602001908152602001600020600a016000815481101515611d2757fe5b9060005260206000200154611f45565b611e51565b9050611d7d816040805190810160405280600181526020017f3a00000000000000000000000000000000000000000000000000000000000000815250611e51565b9050611dbe81611db9600080878152602001908152602001600020600a016001815481101515611da957fe5b9060005260206000200154611f45565b611e51565b9050611dff816040805190810160405280600181526020017f3a00000000000000000000000000000000000000000000000000000000000000815250611e51565b9050611e4081611e3b600080878152602001908152602001600020600a016002815481101515611e2b57fe5b9060005260206000200154611f45565b611e51565b905080915050919050565b60025481565b606082826040516020018083805190602001908083835b602083101515611e8d5780518252602082019150602081019050602083039250611e68565b6001836020036101000a038019825116818451168082178552505050505050905001807f200000000000000000000000000000000000000000000000000000000000000081525060010182805190602001908083835b602083101515611f085780518252602082019150602081019050602083039250611ee3565b6001836020036101000a03801982511681845116808217855250505050505090500192505050604051602081830303815290604052905092915050565b60606000821415611f8d576040805190810160405280600181526020017f300000000000000000000000000000000000000000000000000000000000000081525090506120a5565b600082905060005b600082141515611fbb578080600101915050600a82811515611fb357fe5b049150611f95565b6060816040519080825280601f01601f191660200182016040528015611ff05781602001600182028038833980820191505090505b50905060008290505b60008614151561209d576001810390506000600a808881151561201857fe5b0402870360300190506000817f010000000000000000000000000000000000000000000000000000000000000002905080848481518110151561205757fe5b9060200101907effffffffffffffffffffffffffffffffffffffffffffffffffffffffffffff1916908160001a905350600a8881151561209357fe5b0497505050611ff9565b819450505050505b919050565b828054600181600116156101000203166002900490600052602060002090601f016020900481019282601f106120eb57805160ff1916838001178555612119565b82800160010185558215612119579182015b828111156121185782518255916020019190600101906120fd565b5b50905061212691906121aa565b5090565b828054600181600116156101000203166002900490600052602060002090601f016020900481019282601f1061216b57805160ff1916838001178555612199565b82800160010185558215612199579182015b8281111561219857825182559160200191906001019061217d565b5b5090506121a691906121aa565b5090565b6121cc91905b808211156121c85760008160009055506001016121b0565b5090565b90565b60006121db8235612941565b905092915050565b60006121ef8251612953565b905092915050565b600082601f830112151561220a57600080fd5b813561221d61221882612892565b612865565b9150808252602083016020830185838301111561223957600080fd5b61224483828461299f565b50505092915050565b6000612259823561295f565b905092915050565b600061226d825161295f565b905092915050565b60006020828403121561228757600080fd5b6000612295848285016121cf565b91505092915050565b600080604083850312156122b157600080fd5b60006122bf858286016121cf565b92505060206122d0858286016121cf565b9150509250929050565b6000602082840312156122ec57600080fd5b60006122fa848285016121e3565b91505092915050565b60006020828403121561231557600080fd5b600082013567ffffffffffffffff81111561232f57600080fd5b61233b848285016121f7565b91505092915050565b600080600080600080600060e0888a03121561235f57600080fd5b600088013567ffffffffffffffff81111561237957600080fd5b6123858a828b016121f7565b97505060206123968a828b0161224d565b965050604088013567ffffffffffffffff8111156123b357600080fd5b6123bf8a828b016121f7565b955050606088013567ffffffffffffffff8111156123dc57600080fd5b6123e88a828b016121f7565b94505060806123f98a828b0161224d565b93505060a088013567ffffffffffffffff81111561241657600080fd5b6124228a828b016121f7565b92505060c06124338a828b016121cf565b91505092959891949750929550565b60006020828403121561245457600080fd5b60006124628482850161224d565b91505092915050565b60006020828403121561247d57600080fd5b600061248b84828501612261565b91505092915050565b600080604083850312156124a757600080fd5b60006124b58582860161224d565b925050602083013567ffffffffffffffff8111156124d257600080fd5b6124de858286016121f7565b9150509250929050565b600080604083850312156124fb57600080fd5b60006125098582860161224d565b925050602061251a8582860161224d565b9150509250929050565b6000806000806080858703121561253a57600080fd5b60006125488782880161224d565b94505060206125598782880161224d565b935050604085013567ffffffffffffffff81111561257657600080fd5b612582878288016121f7565b9250506060612593878288016121cf565b91505092959194509250565b6125a881612969565b82525050565b6125b7816128f9565b82525050565b60006125c8826128cb565b808452602084019350836020820285016125e1856128be565b60005b8481101561261a5783830388526125fc8383516126a6565b9250612607826128ec565b91506020880197506001810190506125e4565b508196508694505050505092915050565b6126348161290b565b82525050565b6000612645826128e1565b8084526126598160208601602086016129ae565b612662816129e1565b602085010191505092915050565b600061267b826128d6565b80845261268f8160208601602086016129ae565b612698816129e1565b602085010191505092915050565b60006040830160008301516126be60008601826125ae565b50602083015184820360208601526126d68282612670565b9150508091505092915050565b6126ec81612937565b82525050565b600060208201905061270760008301846125ae565b92915050565b6000602082019050612722600083018461259f565b92915050565b6000602082019050818103600083015261274281846125bd565b905092915050565b600060208201905061275f600083018461262b565b92915050565b6000602082019050818103600083015261277f818461263a565b905092915050565b600060208201905061279c60008301846126e3565b92915050565b60006040820190506127b760008301856126e3565b6127c4602083018461259f565b9392505050565b6000610100820190506127e1600083018b6126e3565b81810360208301526127f3818a612670565b905061280260408301896126e3565b81810360608301526128148188612670565b905061282360808301876126e3565b61283060a08301866126e3565b81810360c08301526128428185612670565b905081810360e08301526128568184612670565b90509998505050505050505050565b6000604051905081810181811067ffffffffffffffff8211171561288857600080fd5b8060405250919050565b600067ffffffffffffffff8211156128a957600080fd5b601f19601f8301169050602081019050919050565b6000602082019050919050565b600081519050919050565b600081519050919050565b600081519050919050565b6000602082019050919050565b600061290482612917565b9050919050565b60008115159050919050565b600073ffffffffffffffffffffffffffffffffffffffff82169050919050565b6000819050919050565b600061294c82612917565b9050919050565b60008115159050919050565b6000819050919050565b60006129748261297b565b9050919050565b60006129868261298d565b9050919050565b600061299882612917565b9050919050565b82818337600083830152505050565b60005b838110156129cc5780820151818401526020810190506129b1565b838111156129db576000848401525b50505050565b6000601f19601f830116905091905056fea265627a7a72305820b096a4416c64701631a165231d0e3f0d39b06dd2004575d4b1ee3f63a261b4df6c6578706572696d656e74616cf50037",
  "source": "pragma solidity ^0.5.0;\r\npragma experimental ABIEncoderV2;\r\n\r\n\r\nimport './Processes.sol';\r\nimport './Stakeholders.sol';\r\n\r\ncontract Product_Full_Details{\r\n\r\n    struct Product {\r\n        uint id;\r\n        string name;\r\n        uint quantity;\r\n        string description;\r\n        uint numberoftraces;\r\n        uint numberoftemperatures;\r\n\t    string test_number;\r\n\r\n\r\n        //all these are tabulated \r\n        uint [] temperatures;\r\n        uint [] processes_involved;\r\n        address [] stakeholders_involved; \r\n        uint [] timestamps;\r\n        string [] locations;\r\n        string globalId; \r\n    }\r\n\r\n    //All instance varibles\r\n\r\n    struct stakeholder {\r\n        address addressstake;\r\n        string staketype;\r\n    }\r\n\r\n    mapping(uint => Product) public products; \r\n    stakeholder[] stakeholderlist;\r\n\r\n\r\n\r\n\r\n\r\n    function registerStakeholder(string memory stakeholdertype) public {\r\n        stakeholderlist.push(stakeholder(msg.sender,stakeholdertype));\r\n    }\r\n\r\n     function getStakeHolderList() public view returns(stakeholder [] memory){\r\n         return stakeholderlist;    \r\n    }\r\n\r\n\r\n\r\n\r\n    uint public productsCount;\r\n\r\n    // Just to know the statistics\r\n    uint public globalnumberstakeholders;\r\n    uint public globalnumberProcesses;\r\n\r\n\r\n\r\n    //Only to be called by manufactuerer\r\n    //he should provide the quantity, his id , place, temperature\r\n    //we anyways deploy backend we also send addrs\r\n    function addProductManufacturer (string memory _name, uint _quantity, string memory _description, string memory _globalID,uint temp,string memory place,address addr) public {\r\n        Stakeholders s = Stakeholders(addr);\r\n        bool ex=s.isManufacturer(msg.sender);\r\n        require(ex);\r\n        productsCount++; \r\n        s.addStakeholderProduct(productsCount,msg.sender);\r\n        \r\n        products[productsCount].id = productsCount; \r\n        products[productsCount].name = _name;\r\n        products[productsCount].quantity = _quantity;\r\n        products[productsCount].description = _description;\r\n        products[productsCount].globalId = _globalID;\r\n        products[productsCount].temperatures.push(temp);\r\n        products[productsCount].stakeholders_involved.push(msg.sender);\r\n        products[productsCount].timestamps.push(now);\r\n        products[productsCount].locations.push(place);\r\n    }\r\n    \r\n    \r\n    function addProductDistributer (uint temp,uint pid,string memory place,address addr) public restricted(pid) {\r\n        Stakeholders s = Stakeholders(addr);\r\n        bool ex=s.isDistributer(msg.sender);\r\n        require(ex);\r\n        s.addStakeholderProduct(pid,msg.sender);\r\n        products[pid].temperatures.push(temp);\r\n        products[pid].stakeholders_involved.push(msg.sender);\r\n        products[pid].timestamps.push(now);\r\n        products[pid].locations.push(place);\r\n    } \r\n\r\n\r\n    function addProductRetailer (uint pid,uint temp,string memory place,address addr) public restricted(pid) {\r\n        Stakeholders s = Stakeholders(addr);\r\n        bool ex=s.isRetailer(msg.sender);\r\n        require(ex);\r\n        s.addStakeholderProduct(pid,msg.sender);\r\n        products[pid].temperatures.push(temp);\r\n        products[pid].stakeholders_involved.push(msg.sender);\r\n        products[pid].timestamps.push(now);\r\n        products[pid].locations.push(place);\r\n    }\r\n\r\n\r\n    function addProductProcessInvolved(uint processid,uint productid) public{\r\n        products[productid].processes_involved.push(processid);\r\n    }\r\n    \r\n\r\n\r\n    //Adding the microscope tests\r\n    function addTestProduct (uint _productId, string memory _test_number) public { \r\n        require(_productId > 0 && _productId <= productsCount); \r\n        products[_productId].test_number = _test_number; \r\n    }\r\n\r\n\r\n    function getNumberOfProducts () public view returns (uint){\r\n        return productsCount;\r\n    }\r\n\r\n    function UpdateProductDescription (uint _productId, string memory _description) public { \r\n        require(_productId > 0 && _productId <= productsCount); \r\n        products[_productId].description = _description;  \r\n    }\r\n\r\n\r\n\r\n    function concatenate(string memory a,string memory b) private pure returns (string memory){\r\n        return string(abi.encodePacked(a,' ',b));\r\n    } \r\n\r\n            \r\n\r\n    function getProductFullDetails (uint _productId) public view returns (string memory) {    \r\n        string memory r=\"\";\r\n        r=concatenate(r,products[_productId].name);\r\n        r=concatenate(r,\":\");\r\n        r=concatenate(r,uint2str(products[_productId].quantity));\r\n        r=concatenate(r,\":\");\r\n        r=concatenate(r,uint2str(products[_productId].temperatures[0]));\r\n        r=concatenate(r,\":\");\r\n        r=concatenate(r,uint2str(products[_productId].temperatures[1]));\r\n        r=concatenate(r,\":\");\r\n        r=concatenate(r,uint2str(products[_productId].temperatures[2]));\r\n        \r\n        r=concatenate(r,\":\");\r\n        r=concatenate(r,(products[_productId].locations[0]));\r\n        r=concatenate(r,\":\");\r\n        r=concatenate(r,(products[_productId].locations[1]));\r\n        r=concatenate(r,\":\");\r\n        r=concatenate(r,(products[_productId].locations[2]));\r\n\r\n        \r\n        r=concatenate(r,\":\");\r\n        r=concatenate(r,uint2str(products[_productId].timestamps[0]));\r\n        r=concatenate(r,\":\");\r\n        r=concatenate(r,uint2str(products[_productId].timestamps[1]));\r\n        r=concatenate(r,\":\");\r\n        r=concatenate(r,uint2str(products[_productId].timestamps[2]));\r\n\r\n\r\n        return r;\r\n    }\r\n\r\n    function getProductGlobalID (uint _productId) public view returns (string memory) {\r\n        require(_productId > 0 && _productId <= productsCount); \r\n\r\n        return products[_productId].globalId;\r\n    }\r\n\r\n    function getProductTest (uint _productId) public view returns (string memory) {\r\n        require(_productId > 0 && _productId <= productsCount); \r\n\r\n        return products[_productId].test_number;\r\n    }\r\n\r\n    function updateNumberOfProcesses (address addr) public {\r\n        \r\n        Processes p = Processes(addr);\r\n        globalnumberProcesses=p.getNumberOfProcesses();    \r\n    }\r\n\r\n\r\n   function updateNumberOfStakeholders (address addr) public {\r\n        \r\n        Stakeholders s = Stakeholders(addr);\r\n        globalnumberstakeholders=s.getNumberOfStakeholders();\r\n        \r\n    }\r\n\r\n    function checkStakeholder (address addr, address stake) public view returns (bool){\r\n        Stakeholders s = Stakeholders(addr);\r\n        bool ex=s.exists(stake);\r\n        return ex;\r\n    }\r\n    \r\n\r\n    //*********************\r\n    //utility functions\r\n    //*********************\r\n\r\n\r\n    modifier restricted(uint _productId){\r\n        require(_productId > 0 && _productId <= productsCount);\r\n        _;\r\n    }\r\n\r\n    function uint2str(uint _i) internal pure returns (string memory _uintAsString) {\r\n            if (_i == 0) {\r\n                return \"0\";\r\n            }\r\n            uint j = _i;\r\n            uint len;\r\n            while (j != 0) {\r\n                len++;\r\n                j /= 10;\r\n            }\r\n            bytes memory bstr = new bytes(len);\r\n            uint k = len;\r\n            while (_i != 0) {\r\n                k = k-1;\r\n                uint8 temp = (48 + uint8(_i - _i / 10 * 10));\r\n                bytes1 b1 = bytes1(temp);\r\n                bstr[k] = b1;\r\n                _i /= 10;\r\n            }\r\n            return string(bstr);\r\n        }\r\n}\r\n\r\n\r\n",
  "sourcePath": "C:\\Users\\Bhanu Reddy\\OneDrive\\Desktop\\DairyApplication-main\\contracts\\Product_Full_Details.sol",
  "compiler": {
    "name": "solc",
    "version": "0.5.0+commit.1d4f565a.Emscripten.clang"
  },
  "schemaVersion": "3.4.9",
  "updatedAt": "2022-08-28T09:58:03.520Z",
  "networkType": "ethereum",
  "devdoc": {
    "methods": {}
  },
  "userdoc": {
    "methods": {}
  }
}