{
  "contractName": "Stakeholders",
  "abi": [
    {
      "constant": true,
      "inputs": [],
      "name": "stakeholderCount",
      "outputs": [
        {
          "name": "",
          "type": "uint256"
        }
      ],
      "payable": false,
      "stateMutability": "view",
      "type": "function"
    },
    {
      "inputs": [],
      "payable": false,
      "stateMutability": "nonpayable",
      "type": "constructor"
    },
    {
      "constant": false,
      "inputs": [
        {
          "name": "_name",
          "type": "string"
        },
        {
          "name": "_description",
          "type": "string"
        },
        {
          "name": "_stake",
          "type": "address"
        },
        {
          "name": "stakeholdertype",
          "type": "string"
        }
      ],
      "name": "addStakeholder",
      "outputs": [],
      "payable": false,
      "stateMutability": "nonpayable",
      "type": "function"
    },
    {
      "constant": true,
      "inputs": [
        {
          "name": "addr",
          "type": "address"
        }
      ],
      "name": "isManufacturer",
      "outputs": [
        {
          "name": "",
          "type": "bool"
        }
      ],
      "payable": false,
      "stateMutability": "view",
      "type": "function"
    },
    {
      "constant": true,
      "inputs": [
        {
          "name": "addr",
          "type": "address"
        }
      ],
      "name": "isDistributer",
      "outputs": [
        {
          "name": "",
          "type": "bool"
        }
      ],
      "payable": false,
      "stateMutability": "view",
      "type": "function"
    },
    {
      "constant": true,
      "inputs": [
        {
          "name": "addr",
          "type": "address"
        }
      ],
      "name": "isRetailer",
      "outputs": [
        {
          "name": "",
          "type": "bool"
        }
      ],
      "payable": false,
      "stateMutability": "view",
      "type": "function"
    },
    {
      "constant": false,
      "inputs": [
        {
          "name": "_id",
          "type": "uint256"
        },
        {
          "name": "_stake",
          "type": "address"
        }
      ],
      "name": "addStakeholderProduct",
      "outputs": [],
      "payable": false,
      "stateMutability": "nonpayable",
      "type": "function"
    },
    {
      "constant": false,
      "inputs": [
        {
          "name": "_active",
          "type": "bool"
        },
        {
          "name": "_stake",
          "type": "address"
        }
      ],
      "name": "changeStatus",
      "outputs": [],
      "payable": false,
      "stateMutability": "nonpayable",
      "type": "function"
    },
    {
      "constant": true,
      "inputs": [
        {
          "name": "_stake",
          "type": "address"
        }
      ],
      "name": "getStakeholdersProduct",
      "outputs": [
        {
          "name": "",
          "type": "uint256[]"
        }
      ],
      "payable": false,
      "stateMutability": "view",
      "type": "function"
    },
    {
      "constant": true,
      "inputs": [
        {
          "name": "_stake",
          "type": "address"
        }
      ],
      "name": "getStakeholder",
      "outputs": [
        {
          "components": [
            {
              "name": "id",
              "type": "uint256"
            },
            {
              "name": "stakeholderType",
              "type": "string"
            },
            {
              "name": "name",
              "type": "string"
            },
            {
              "name": "timestamp",
              "type": "uint256"
            },
            {
              "name": "involvedproducts",
              "type": "uint256[]"
            },
            {
              "name": "description",
              "type": "string"
            },
            {
              "name": "myself",
              "type": "address"
            },
            {
              "name": "active",
              "type": "bool"
            }
          ],
          "name": "",
          "type": "tuple"
        }
      ],
      "payable": false,
      "stateMutability": "view",
      "type": "function"
    },
    {
      "constant": true,
      "inputs": [
        {
          "name": "_stake",
          "type": "address"
        }
      ],
      "name": "getStakeholdername",
      "outputs": [
        {
          "name": "",
          "type": "string"
        }
      ],
      "payable": false,
      "stateMutability": "view",
      "type": "function"
    },
    {
      "constant": true,
      "inputs": [
        {
          "name": "_stake",
          "type": "address"
        }
      ],
      "name": "getStakeholdertype",
      "outputs": [
        {
          "name": "",
          "type": "string"
        }
      ],
      "payable": false,
      "stateMutability": "view",
      "type": "function"
    },
    {
      "constant": true,
      "inputs": [
        {
          "name": "_stake",
          "type": "address"
        }
      ],
      "name": "getStakeholderdesc",
      "outputs": [
        {
          "name": "",
          "type": "string"
        }
      ],
      "payable": false,
      "stateMutability": "view",
      "type": "function"
    },
    {
      "constant": true,
      "inputs": [],
      "name": "getNumberOfStakeholders",
      "outputs": [
        {
          "name": "",
          "type": "uint256"
        }
      ],
      "payable": false,
      "stateMutability": "view",
      "type": "function"
    },
    {
      "constant": true,
      "inputs": [
        {
          "name": "_stake",
          "type": "address"
        }
      ],
      "name": "exists",
      "outputs": [
        {
          "name": "",
          "type": "bool"
        }
      ],
      "payable": false,
      "stateMutability": "view",
      "type": "function"
    },
    {
      "constant": true,
      "inputs": [
        {
          "name": "arr",
          "type": "address[]"
        }
      ],
      "name": "getFullStakeholdersDetails",
      "outputs": [
        {
          "name": "",
          "type": "string"
        }
      ],
      "payable": false,
      "stateMutability": "view",
      "type": "function"
    }
  ],
  "bytecode": "0x608060405234801561001057600080fd5b50336000806101000a81548173ffffffffffffffffffffffffffffffffffffffff021916908373ffffffffffffffffffffffffffffffffffffffff160217905550611d65806100606000396000f3fe6080604052600436106100db576000357c0100000000000000000000000000000000000000000000000000000000900463ffffffff16806317d4a491146100e057806320b6e4e51461011d5780632d955cf9146101465780633cd2e2741461016f5780635da09b88146101ac57806362afde25146101e95780636702cdcf1461022657806397f8332914610263578063b3d8f3b51461028c578063b8acded8146102b7578063c3e5be96146102f4578063d8319ef314610331578063e54fd3ff1461035c578063f6a3d24e14610399578063fde7aba3146103d6575b600080fd5b3480156100ec57600080fd5b5061010760048036036101029190810190611690565b610413565b6040516101149190611ad9565b60405180910390f35b34801561012957600080fd5b50610144600480360361013f91908101906116fa565b6104e7565b005b34801561015257600080fd5b5061016d600480360361016891908101906117e1565b610560565b005b34801561017b57600080fd5b5061019660048036036101919190810190611690565b6105d0565b6040516101a39190611ad9565b60405180910390f35b3480156101b857600080fd5b506101d360048036036101ce9190810190611690565b6106a4565b6040516101e09190611ad9565b60405180910390f35b3480156101f557600080fd5b50610210600480360361020b9190810190611690565b610778565b60405161021d9190611b38565b60405180910390f35b34801561023257600080fd5b5061024d600480360361024891908101906116b9565b610a96565b60405161025a9190611af4565b60405180910390f35b34801561026f57600080fd5b5061028a60048036036102859190810190611736565b610cd8565b005b34801561029857600080fd5b506102a1610fbb565b6040516102ae9190611b5a565b60405180910390f35b3480156102c357600080fd5b506102de60048036036102d99190810190611690565b610fc5565b6040516102eb9190611af4565b60405180910390f35b34801561030057600080fd5b5061031b60048036036103169190810190611690565b6110a9565b6040516103289190611ab7565b60405180910390f35b34801561033d57600080fd5b50610346611143565b6040516103539190611b5a565b60405180910390f35b34801561036857600080fd5b50610383600480360361037e9190810190611690565b611149565b6040516103909190611af4565b60405180910390f35b3480156103a557600080fd5b506103c060048036036103bb9190810190611690565b61122d565b6040516103cd9190611ad9565b60405180910390f35b3480156103e257600080fd5b506103fd60048036036103f89190810190611690565b61129e565b60405161040a9190611af4565b60405180910390f35b600060606040805190810160405280600c81526020017f4d616e75666163747572657200000000000000000000000000000000000000008152509050806040516020016104609190611af4565b60405160208183030381529060405280519060200120600160008573ffffffffffffffffffffffffffffffffffffffff1673ffffffffffffffffffffffffffffffffffffffff1681526020019081526020016000206001016040516020016104c89190611b16565b6040516020818303038152906040528051906020012014915050919050565b600115156104f48261122d565b151514151561050257600080fd5b81600160008373ffffffffffffffffffffffffffffffffffffffff1673ffffffffffffffffffffffffffffffffffffffff16815260200190815260200160002060060160146101000a81548160ff0219169083151502179055505050565b600160008273ffffffffffffffffffffffffffffffffffffffff1673ffffffffffffffffffffffffffffffffffffffff1681526020019081526020016000206004018290806001815401808255809150509060018203906000526020600020016000909192909190915055505050565b600060606040805190810160405280600b81526020017f446973747269627574657200000000000000000000000000000000000000000081525090508060405160200161061d9190611af4565b60405160208183030381529060405280519060200120600160008573ffffffffffffffffffffffffffffffffffffffff1673ffffffffffffffffffffffffffffffffffffffff1681526020019081526020016000206001016040516020016106859190611b16565b6040516020818303038152906040528051906020012014915050919050565b600060606040805190810160405280600881526020017f52657461696c65720000000000000000000000000000000000000000000000008152509050806040516020016106f19190611af4565b60405160208183030381529060405280519060200120600160008573ffffffffffffffffffffffffffffffffffffffff1673ffffffffffffffffffffffffffffffffffffffff1681526020019081526020016000206001016040516020016107599190611b16565b6040516020818303038152906040528051906020012014915050919050565b610780611476565b600160008373ffffffffffffffffffffffffffffffffffffffff1673ffffffffffffffffffffffffffffffffffffffff168152602001908152602001600020610100604051908101604052908160008201548152602001600182018054600181600116156101000203166002900480601f01602080910402602001604051908101604052809291908181526020018280546001816001161561010002031660029004801561086f5780601f106108445761010080835404028352916020019161086f565b820191906000526020600020905b81548152906001019060200180831161085257829003601f168201915b50505050508152602001600282018054600181600116156101000203166002900480601f0160208091040260200160405190810160405280929190818152602001828054600181600116156101000203166002900480156109115780601f106108e657610100808354040283529160200191610911565b820191906000526020600020905b8154815290600101906020018083116108f457829003601f168201915b50505050508152602001600382015481526020016004820180548060200260200160405190810160405280929190818152602001828054801561097357602002820191906000526020600020905b81548152602001906001019080831161095f575b50505050508152602001600582018054600181600116156101000203166002900480601f016020809104026020016040519081016040528092919081815260200182805460018160011615610100020316600290048015610a155780601f106109ea57610100808354040283529160200191610a15565b820191906000526020600020905b8154815290600101906020018083116109f857829003601f168201915b505050505081526020016006820160009054906101000a900473ffffffffffffffffffffffffffffffffffffffff1673ffffffffffffffffffffffffffffffffffffffff1673ffffffffffffffffffffffffffffffffffffffff1681526020016006820160149054906101000a900460ff1615151515815250509050919050565b6060806020604051908101604052806000815250905060008090505b8351811015610cce576060600160008684815181101515610acf57fe5b9060200190602002015173ffffffffffffffffffffffffffffffffffffffff1673ffffffffffffffffffffffffffffffffffffffff1681526020019081526020016000206002018054600181600116156101000203166002900480601f016020809104026020016040519081016040528092919081815260200182805460018160011615610100020316600290048015610baa5780601f10610b7f57610100808354040283529160200191610baa565b820191906000526020600020905b815481529060010190602001808311610b8d57829003601f168201915b505050505090506060600160008785815181101515610bc557fe5b9060200190602002015173ffffffffffffffffffffffffffffffffffffffff1673ffffffffffffffffffffffffffffffffffffffff1681526020019081526020016000206005018054600181600116156101000203166002900480601f016020809104026020016040519081016040528092919081815260200182805460018160011615610100020316600290048015610ca05780601f10610c7557610100808354040283529160200191610ca0565b820191906000526020600020905b815481529060010190602001808311610c8357829003601f168201915b50505050509050610cb18483611382565b9350610cbd8482611382565b935050508080600101915050610ab2565b5080915050919050565b3373ffffffffffffffffffffffffffffffffffffffff166000809054906101000a900473ffffffffffffffffffffffffffffffffffffffff1673ffffffffffffffffffffffffffffffffffffffff16141515610d3357600080fd5b600260008154809291906001019190505550600254600160008473ffffffffffffffffffffffffffffffffffffffff1673ffffffffffffffffffffffffffffffffffffffff1681526020019081526020016000206000018190555083600160008473ffffffffffffffffffffffffffffffffffffffff1673ffffffffffffffffffffffffffffffffffffffff1681526020019081526020016000206002019080519060200190610de49291906114d4565b5042600160008473ffffffffffffffffffffffffffffffffffffffff1673ffffffffffffffffffffffffffffffffffffffff1681526020019081526020016000206003018190555082600160008473ffffffffffffffffffffffffffffffffffffffff1673ffffffffffffffffffffffffffffffffffffffff1681526020019081526020016000206005019080519060200190610e829291906114d4565b5081600160008473ffffffffffffffffffffffffffffffffffffffff1673ffffffffffffffffffffffffffffffffffffffff16815260200190815260200160002060060160006101000a81548173ffffffffffffffffffffffffffffffffffffffff021916908373ffffffffffffffffffffffffffffffffffffffff16021790555080600160008473ffffffffffffffffffffffffffffffffffffffff1673ffffffffffffffffffffffffffffffffffffffff1681526020019081526020016000206001019080519060200190610f5a9291906114d4565b5060018060008473ffffffffffffffffffffffffffffffffffffffff1673ffffffffffffffffffffffffffffffffffffffff16815260200190815260200160002060060160146101000a81548160ff02191690831515021790555050505050565b6000600254905090565b6060600160008373ffffffffffffffffffffffffffffffffffffffff1673ffffffffffffffffffffffffffffffffffffffff1681526020019081526020016000206001018054600181600116156101000203166002900480601f01602080910402602001604051908101604052809291908181526020018280546001816001161561010002031660029004801561109d5780601f106110725761010080835404028352916020019161109d565b820191906000526020600020905b81548152906001019060200180831161108057829003601f168201915b50505050509050919050565b6060600160008373ffffffffffffffffffffffffffffffffffffffff1673ffffffffffffffffffffffffffffffffffffffff16815260200190815260200160002060040180548060200260200160405190810160405280929190818152602001828054801561113757602002820191906000526020600020905b815481526020019060010190808311611123575b50505050509050919050565b60025481565b6060600160008373ffffffffffffffffffffffffffffffffffffffff1673ffffffffffffffffffffffffffffffffffffffff1681526020019081526020016000206005018054600181600116156101000203166002900480601f0160208091040260200160405190810160405280929190818152602001828054600181600116156101000203166002900480156112215780601f106111f657610100808354040283529160200191611221565b820191906000526020600020905b81548152906001019060200180831161120457829003601f168201915b50505050509050919050565b600060011515600160008473ffffffffffffffffffffffffffffffffffffffff1673ffffffffffffffffffffffffffffffffffffffff16815260200190815260200160002060060160149054906101000a900460ff16151514156112945760019050611299565b600090505b919050565b6060600160008373ffffffffffffffffffffffffffffffffffffffff1673ffffffffffffffffffffffffffffffffffffffff1681526020019081526020016000206002018054600181600116156101000203166002900480601f0160208091040260200160405190810160405280929190818152602001828054600181600116156101000203166002900480156113765780601f1061134b57610100808354040283529160200191611376565b820191906000526020600020905b81548152906001019060200180831161135957829003601f168201915b50505050509050919050565b606082826040516020018083805190602001908083835b6020831015156113be5780518252602082019150602081019050602083039250611399565b6001836020036101000a038019825116818451168082178552505050505050905001807f200000000000000000000000000000000000000000000000000000000000000081525060010182805190602001908083835b6020831015156114395780518252602082019150602081019050602083039250611414565b6001836020036101000a03801982511681845116808217855250505050505090500192505050604051602081830303815290604052905092915050565b61010060405190810160405280600081526020016060815260200160608152602001600081526020016060815260200160608152602001600073ffffffffffffffffffffffffffffffffffffffff1681526020016000151581525090565b828054600181600116156101000203166002900490600052602060002090601f016020900481019282601f1061151557805160ff1916838001178555611543565b82800160010185558215611543579182015b82811115611542578251825591602001919060010190611527565b5b5090506115509190611554565b5090565b61157691905b8082111561157257600081600090555060010161155a565b5090565b90565b60006115858235611cb0565b905092915050565b600082601f83011215156115a057600080fd5b81356115b36115ae82611ba2565b611b75565b915081818352602084019350602081019050838560208402820111156115d857600080fd5b60005b8381101561160857816115ee8882611579565b8452602084019350602083019250506001810190506115db565b5050505092915050565b600061161e8235611cc2565b905092915050565b600082601f830112151561163957600080fd5b813561164c61164782611bca565b611b75565b9150808252602083016020830185838301111561166857600080fd5b611673838284611cd8565b50505092915050565b60006116888235611cce565b905092915050565b6000602082840312156116a257600080fd5b60006116b084828501611579565b91505092915050565b6000602082840312156116cb57600080fd5b600082013567ffffffffffffffff8111156116e557600080fd5b6116f18482850161158d565b91505092915050565b6000806040838503121561170d57600080fd5b600061171b85828601611612565b925050602061172c85828601611579565b9150509250929050565b6000806000806080858703121561174c57600080fd5b600085013567ffffffffffffffff81111561176657600080fd5b61177287828801611626565b945050602085013567ffffffffffffffff81111561178f57600080fd5b61179b87828801611626565b93505060406117ac87828801611579565b925050606085013567ffffffffffffffff8111156117c957600080fd5b6117d587828801611626565b91505092959194509250565b600080604083850312156117f457600080fd5b60006118028582860161167c565b925050602061181385828601611579565b9150509250929050565b61182681611c68565b82525050565b600061183782611c2d565b80845260208401935061184983611c03565b60005b8281101561187b5761185f868351611aa8565b61186882611c5b565b915060208601955060018101905061184c565b50849250505092915050565b600061189282611c22565b8084526020840193506118a483611bf6565b60005b828110156118d6576118ba868351611aa8565b6118c382611c4e565b91506020860195506001810190506118a7565b50849250505092915050565b6118eb81611c7a565b82525050565b60006118fc82611c43565b808452611910816020860160208601611ce7565b61191981611d1a565b602085010191505092915050565b600061193282611c38565b808452611946816020860160208601611ce7565b61194f81611d1a565b602085010191505092915050565b60008154600181166000811461197a576001811461199a576119db565b607f600283041680865260ff1983166020870152604086019350506119db565b600282048086526020860195506119b085611c10565b60005b828110156119d2578154818901526001820191506020810190506119b3565b80880195505050505b505092915050565b6000610100830160008301516119fc6000860182611aa8565b5060208301518482036020860152611a148282611927565b91505060408301518482036040860152611a2e8282611927565b9150506060830151611a436060860182611aa8565b5060808301518482036080860152611a5b8282611887565b91505060a083015184820360a0860152611a758282611927565b91505060c0830151611a8a60c086018261181d565b5060e0830151611a9d60e08601826118e2565b508091505092915050565b611ab181611ca6565b82525050565b60006020820190508181036000830152611ad1818461182c565b905092915050565b6000602082019050611aee60008301846118e2565b92915050565b60006020820190508181036000830152611b0e81846118f1565b905092915050565b60006020820190508181036000830152611b30818461195d565b905092915050565b60006020820190508181036000830152611b5281846119e3565b905092915050565b6000602082019050611b6f6000830184611aa8565b92915050565b6000604051905081810181811067ffffffffffffffff82111715611b9857600080fd5b8060405250919050565b600067ffffffffffffffff821115611bb957600080fd5b602082029050602081019050919050565b600067ffffffffffffffff821115611be157600080fd5b601f19601f8301169050602081019050919050565b6000602082019050919050565b6000602082019050919050565b60008160005260206000209050919050565b600081519050919050565b600081519050919050565b600081519050919050565b600081519050919050565b6000602082019050919050565b6000602082019050919050565b6000611c7382611c86565b9050919050565b60008115159050919050565b600073ffffffffffffffffffffffffffffffffffffffff82169050919050565b6000819050919050565b6000611cbb82611c86565b9050919050565b60008115159050919050565b6000819050919050565b82818337600083830152505050565b60005b83811015611d05578082015181840152602081019050611cea565b83811115611d14576000848401525b50505050565b6000601f19601f830116905091905056fea265627a7a7230582073c68063a3790aeb72be7544758c53ee57df38758c55a8f7a91a066a2ecb4e656c6578706572696d656e74616cf50037",
  "source": "pragma solidity ^0.5.0;\r\npragma experimental ABIEncoderV2;\r\n \r\n\r\nimport './Processes.sol';\r\nimport './Product_Full_Details.sol';\r\n\r\n\r\n\r\ncontract Stakeholders{\r\n    struct Stakeholder{\r\n        uint id; // id\r\n        string stakeholderType;\r\n        string name; // the name of stakeholder\r\n        uint timestamp; // when it was registered\r\n        uint [] involvedproducts; // products used or related to stakeholder\r\n        string description; // other info\r\n\t    address myself; // the address of this stakeholder\r\n        // address maker; // who registered this stakeholder, admin system\r\n        bool active; // to enable or disable this stakeholder\r\n    }\r\n\r\n    address admin;\r\n\r\n    mapping(address => Stakeholder) private stakeholderAddrs; \r\n    uint public stakeholderCount;\r\n\r\n\r\n    constructor ()public {\r\n        admin=msg.sender;\r\n    }\r\n\r\n\r\n    //_stake is the address of the stakeholder who is going to be added\r\n    function addStakeholder (string memory _name,  string memory _description, address _stake,string memory stakeholdertype) public {\r\n\r\n        //&& (stakeholdertype== 'MANUFACTURER' || stakeholdertype=='DISTRIBUTER' || stakeholdertype=='RETAILER')\r\n\r\n        require(admin==msg.sender );\r\n        stakeholderCount++;\r\n        stakeholderAddrs[_stake].id = stakeholderCount;\r\n        stakeholderAddrs[_stake].name = _name; \r\n        stakeholderAddrs[_stake].timestamp = now; \r\n        stakeholderAddrs[_stake].description = _description;\r\n        stakeholderAddrs[_stake].myself = _stake; \r\n        stakeholderAddrs[_stake].stakeholderType=stakeholdertype; \r\n        stakeholderAddrs[_stake].active = true; \r\n    }\r\n\r\n\r\n\r\n    function isManufacturer(address addr) public view returns (bool){\r\n        string memory y=\"Manufacturer\";\r\n        return keccak256(abi.encode(stakeholderAddrs[addr].stakeholderType)) == keccak256(abi.encode(y));\r\n    }\r\n    function isDistributer(address addr) public view returns (bool){\r\n        string memory y=\"Distributer\";\r\n        return keccak256(abi.encode(stakeholderAddrs[addr].stakeholderType)) == keccak256(abi.encode(y));\r\n    }\r\n    function isRetailer(address addr) public view returns (bool){\r\n        string memory y=\"Retailer\";\r\n        return keccak256(abi.encode(stakeholderAddrs[addr].stakeholderType)) == keccak256(abi.encode(y));\r\n    }\r\n\r\n\r\n\r\n    function addStakeholderProduct(uint _id, address _stake) public { \r\n        stakeholderAddrs[_stake].involvedproducts.push(_id); \r\n    }\r\n\r\n    function changeStatus (bool _active, address _stake) public {\r\n        require(exists(_stake)==true);\r\n        stakeholderAddrs[_stake].active = _active;\r\n    }\r\n\r\n\r\n    //require statements \r\n    function getStakeholdersProduct (address _stake) public view returns (uint [] memory)  {\r\n        return stakeholderAddrs[_stake].involvedproducts;\r\n    }\r\n\r\n\r\n    function getStakeholder (address _stake) public view returns (Stakeholder memory)  {\r\n\r\n\r\n        return stakeholderAddrs[_stake];\r\n    }\r\n\r\n     function getStakeholdername (address _stake) public view returns (string memory)  {\r\n\r\n\r\n        return stakeholderAddrs[_stake].name;\r\n    }\r\n\r\n     function getStakeholdertype (address _stake) public view returns (string memory)  {\r\n\r\n\r\n        return stakeholderAddrs[_stake].stakeholderType;\r\n    }\r\n\r\n    function getStakeholderdesc (address _stake) public view returns (string memory)  {\r\n\r\n\r\n        return stakeholderAddrs[_stake].description;\r\n    }\r\n    \r\n    function getNumberOfStakeholders () public view returns (uint){    \r\n        return stakeholderCount;\r\n    }\r\n\r\n    function exists(address _stake) public view returns (bool){\r\n        if(stakeholderAddrs[_stake].active == true){\r\n            return true;\r\n        }\r\n        return false;\r\n    }\r\n    function concatenate(string memory a,string memory b) private pure returns (string memory){\r\n        return string(abi.encodePacked(a,' ',b));\r\n    } \r\n\r\n    function getFullStakeholdersDetails(address[] memory arr) public view returns(string memory){\r\n        string memory r=\"\";\r\n         for (uint i=0; i<arr.length; i++) {\r\n            string memory temp1=stakeholderAddrs[arr[i]].name;\r\n            string memory temp2=stakeholderAddrs[arr[i]].description;\r\n            \r\n            r=concatenate(r,temp1);\r\n            r=concatenate(r,temp2);\r\n         }\r\n\r\n        return r;\r\n    }\r\n\r\n}\r\n\r\n\r\n\r\n\r\n",
  "sourcePath": "C:\\Users\\Bhanu Reddy\\OneDrive\\Desktop\\DairyApplication-main\\contracts\\Stakeholders.sol",
  "compiler": {
    "name": "solc",
    "version": "0.5.0+commit.1d4f565a.Emscripten.clang"
  },
  "schemaVersion": "3.4.9",
  "updatedAt": "2022-08-28T09:58:03.534Z",
  "networkType": "ethereum",
  "devdoc": {
    "methods": {}
  },
  "userdoc": {
    "methods": {}
  }
}